{
  "abi": [
    {
      "inputs": [
        {
          "internalType": "uint256",
          "name": "",
          "type": "uint256"
        }
      ],
      "name": "arr",
      "outputs": [
        {
          "internalType": "address",
          "name": "",
          "type": "address"
        }
      ],
      "stateMutability": "view",
      "type": "function"
    },
    {
      "inputs": [],
      "name": "getBorrowers",
      "outputs": [
        {
          "internalType": "address[]",
          "name": "",
          "type": "address[]"
        }
      ],
      "stateMutability": "nonpayable",
      "type": "function"
    }
  ],
  "bytecode": {
    "object": "0x608060405234801561001057600080fd5b50610e3f806100206000396000f3fe608060405234801561001057600080fd5b50600436106100365760003560e01c80636854786a1461003b57806371e5ee5f14610059575b600080fd5b610043610084565b6040516100509190610da3565b60405180910390f35b61006c610067366004610df0565b610cff565b6040516001600160a01b039091168152602001610050565b60408051610e408101825273daf92fbda8495c2bd1e5dccc4801fee49a9d222a8152735a2d0e3d6f862ee155f52ab65b6b22e1d80f57166020820152730301e6c63f3b9cf869e77996e287ca217c6b552191810191909152731098d651576137eacf5182bb5f18a1403719668860608281019190915273412b7f53613be5d29e112e5a23f8d52b1e77eeb6608083015273de41866e40d8e6edc9af1ece7342e718cf45503a60a083015273935ad0fbea9572bb24138f23a69e314f0bdbddbe60c0830152737421c1ed16b400e4868ce696452c3c985f8cd04d60e083015273c550e3dc63d09a192dc47bde3569a2358563f56561010083015273faa779cc3d28caa7a65ea57e172c19c2e60bb8d561012083015273d007058e9b58e74c33c6bf6fbcd38baab813cbb661014083015273ab42892e5ecdf640e037af5e24e4a895b34ef1d261016083015273fe067b753b7cbb95e5ee05e54932b1edd4301c7761018083015273430d4ce1e55023fd75ee1bd0adeb166a9f2071d46101a083015273d4ac89483776351f3ac7147f0ce7434333754c586101c0830152734439ff2c089730cea1412a69c7b4c34a44ad885b6101e0830152734e58b97ce2c9a687ff6df2ba7f8f7217ad44327d610200830152734e925df00cf892d0d20bb7985f0ec5d0e1154b6e61022083015273647e3e0375047ee58b0ea6c71e79f0c7d64db89f61024083015273abb5032d8c70b8f895101f8bfe7cbf1acee97d756102608301527321457ee007c9bbe648226e9cdc529a244e2c43e4610280830152735d2ac86b1d199db89e6fa59efeb5cbaa4cf0ff7c6102a083015273b5563e87e80d73784eaec8531d3f461013a21d636102c08301527370644a67a01971c28395327ca9846e0247313bc96102e083015273445dfb4d52b7bca4557dd6df8ca8d2d2a7a832d661030083015273676eb0dc5644dbcb2c37849ad76432a73af0b5826103208301527382b999b482267e591e0d4239a0bb4b4131faf08b61034083015273b780f8b02a7dcddefd2d53c82709c389618d950361036083015273dec1fbce7d54262b34155634153b05deecbb6840610380830152734e5e6c73f5b94a0d390bde3cca9330cee79c18106103a083015273e831c8903de820137c13681e78a5780afddf76976103c0830152735ec6abff9bb4c673f63d077a962a29945f7448576103e083015273be3c2d83fbca8a70f7d22c1057b041d8a2668f13610400830152733976f4496b519f6cf0bdc962b4c131d3896ab189610420830152735a0b3a59312701115d714be01c12ba205eca1b4a610440830152737b09c9f2e9e71fc5570109cbb31c3aaec7fcc73b61046083015273298629982613bf36c48d0b31afd2fe7d1b4604dc61048083015273f185a3b1bb4d0128b02d79a72c2b77e2a2904f326104a0830152732de373887b9742162c9a5885ddb5debea8e4486d6104c08301527358a24fa9ae8847cbcf245dd2ef7fcef205927af16104e083015273af06acfd1bd492b913d5807d562e4fc3a6343c4e61050083015273f1454cd65c8fe0bcf938f70bd991ce6c71ff059e610520830152739600a48ed0f931d0c422d574e3275a90d8b2274561054083015273e6c2ebad69b325be894f768972dc8f896994e6ce610560830152735de64f9503064344db3202d95ceb73c420dccd57610580830152732ee3afb00e0dde92da976930047b0001c9ed29246105a0830152733f3429d28438cc14133966820b8a9ea61cf1d4f06105c083015273a4dfe02df1aed4196a42b0009c9ee1e66af21d466105e083015273ab92fca834aac2afe16cf6a2fc60cc7a864a77a56106008301527342c8e43048f6ff3586945a1fd23e0bec540dcd0761062083015272e286b5256aa6cf252d5a8a5a7b8c20ec3bc4d5610640830152737634049875381b273abf264e1eed5ba164b4428161066083015273357060b26691c0852df9d7dfb22c16c1559cb497610680830152734a7d3871865ec2773b5250bda41251807ed56cec6106a083015273ffc06fef1f8c21b51cb9bda3fbf103e770416a286106c08301527323ce3d121065d7cc7d372116381a859d7a4db0ed6106e083015273471d2c4d472c5490ffde2c4f7bf902d7e6eed24e61070083015273d56353e0bdc41ad232f9d11109868703c1e2b2b961072083015273857f876490b63bdc7605165e0df568ae54f72d8e61074083015273c9032419aa502fafa107775dca8b7d07575d9db56107608301527314f425e2dcdb9efabaca25a4a74f823b142e245261078083015273b806dfcb1683854305faef6c175398635fcbeb146107a0830152730bcf9fc3e7f917a0afa056878cc799ad926dcaf86107c08301527330222a5184ff07c2943e2da03595589789c28a556107e08301527366b870ddf78c975af5cd8edc6de25eca81791de161080083015273a2dfaea03bf2140cab99e3de9f23f568c850b76a610820830152731f5f902be1f635b30425b690aa9fd5fa2b6fa79c61084083015273eadb3840596cabf312f2bc88a4bb0b93a4e1ff5f61086083015273d8fb5ff1ecc3328b189d91a2c9285cbf2592cdcc61088083015273cdd7152eee446ed547d8e8f19f2d83cf94d4c2356108a0830152730ae30275382e4517977e3a4291bb9bb59461a8d36108c083015273f0ca1c00765e7e20767e2529adc001a261ae2c436108e08301527397dac6695de0a983fe291f7e0637e11dd44b674c61090083015273a9ba157770045cffe977601fd46b9cc3c442960461092083015273f26564021f3a4b87a1408162e000ae44121e10146109408301527363c89e252b81fe26402f2f8372d5ac8d8819b09161096083015273c6f39dd3064bc6b92db79da02b8471932cda943b61098083015273ccfa0530b9d52f970d1a2daea670ce58e41763896109a083015273b1404af4a2ded177c38a8016d4e7dd043c11c2886109c08301527342d0ed91b55065fabcfb9ab3516437d01430c0e66109e0830152739f4f18ac9cc9de7c1441ac39ab2dbd7174fa1561610a0083015273d7cd13d8f86c7c580491b4cdadf849267475a965610a20830152739cbf099ff424979439dfba03f00b5961784c06ce610a4083015273e0f84173806d27958369e6d321cf023ccceea809610a6083015273634eeef5d8314e0f0056c11f4d1b1837c32ba10f610a8083015273b4ab9ccc51d5e8532da753aa71aa0bdede948e63610aa083015273fafeb6c262517d7d1171a3ba836e3e2d2897835f610ac083015273b15485a37a1e6759f0dff1bdccfc27c2c96c8b2e610ae083015273702a39a9d7d84c6b269efaa024dff4037499bba9610b008301527359a661f1c909ca13ba3e9114bfdd81e5a420705d610b20830152734d7ae594a7b3675e0508e4c0d00d9ca0c661714e610b4083015273eab23c1e3776fad145e2e3dc56bcf739f6e0a393610b60830152739df8dd68c73b096cd9c0c4963fe89613df40a1cf610b8083015273e34bb624055b171d777eccbbfc3baaeeffbe432c610ba083015273904fa2e9a66a586f60320f14a19e0fd7ddfc48a6610bc08301527380d0d54050c15971b21e877d95441800f5aa9ee8610be08301527334c9d6229de541e2fa77e60835f5106d5842bbb3610c0083015273bac121b98f583ba610b375e25345e2fd6259f537610c2083015273d4f9fe0039da59e6ddb21bbb6e84e0c9e83d73ed610c40830152732a60a54d83d98c0e70dbb52b8a1aa989354650d1610c6083015273817f52906e5f5556cded1ab7ca56bed3df185c7e610c80830152730e66cf7a7e7a7f4574670f6c2c9d463e1478a06c610ca0830152738a72c47f190f2118227a83da784a2ce45c54f484610cc0830152730a5fb8fe3e08bfd43c67581433850271dc2648d0610ce08301527381f2fa40494601ef81bddaba00e6646eba16c855610d00830152739093d3194d887891994e79f35cd5c6872b085dab610d20830152730b6b712b0f3998961cd3109341b00c905b16124a610d4083015273dbf66494751f9bb52feab916c87763585775bf10610d6083015273e9bf81b432e5bf34995afae08747c530c8406c4d610d808301527398bf1e573de69954a65bfd373f8a151bfb2b1177610da0830152739e01357fb37d4d4c81f2f3807ac9fbbca094dfe8610dc083015273afa788fab589fe61c23df76905558f4734444d67610de0830152735ef0f3c15b2371e7355f5b6594f706ab7417655e610e00830152732c3b941f40bfef0d4e0711914d2eed9eb60151ff610e2083015290610c9e906000906072610d29565b506000805480602002602001604051908101604052809291908181526020018280548015610cf557602002820191906000526020600020905b81546001600160a01b03168152600190910190602001808311610cd7575b5050505050905090565b60008181548110610d0f57600080fd5b6000918252602090912001546001600160a01b0316905081565b828054828255906000526020600020908101928215610d7e579160200282015b82811115610d7e57825182546001600160a01b0319166001600160a01b03909116178255602090920191600190910190610d49565b50610d8a929150610d8e565b5090565b5b80821115610d8a5760008155600101610d8f565b6020808252825182820181905260009190848201906040850190845b81811015610de45783516001600160a01b031683529284019291840191600101610dbf565b50909695505050505050565b600060208284031215610e0257600080fd5b503591905056fea26469706673582212204a6057c12f8cd7ace7750cfbf8f585ad8958c34c027eb138974689d2ae6be29c64736f6c63430008120033",
    "linkReferences": {}
  },
  "methodIdentifiers": {
    "arr(uint256)": "71e5ee5f",
    "getBorrowers()": "6854786a"
  },
  "id": 0
}